{
  "contractName": "ERC20",
  "abi": [
    {
      "inputs": [
        {
          "internalType": "string",
          "name": "name",
          "type": "string"
        },
        {
          "internalType": "string",
          "name": "symbol",
          "type": "string"
        }
      ],
      "payable": false,
      "stateMutability": "nonpayable",
      "type": "constructor"
    },
    {
      "constant": true,
      "inputs": [],
      "name": "owner",
      "outputs": [
        {
          "internalType": "address",
          "name": "",
          "type": "address"
        }
      ],
      "payable": false,
      "stateMutability": "view",
      "type": "function"
    },
    {
      "constant": true,
      "inputs": [],
      "name": "name",
      "outputs": [
        {
          "internalType": "string",
          "name": "",
          "type": "string"
        }
      ],
      "payable": false,
      "stateMutability": "view",
      "type": "function"
    },
    {
      "constant": true,
      "inputs": [],
      "name": "symbol",
      "outputs": [
        {
          "internalType": "string",
          "name": "",
          "type": "string"
        }
      ],
      "payable": false,
      "stateMutability": "view",
      "type": "function"
    },
    {
      "constant": true,
      "inputs": [],
      "name": "decimals",
      "outputs": [
        {
          "internalType": "uint8",
          "name": "",
          "type": "uint8"
        }
      ],
      "payable": false,
      "stateMutability": "view",
      "type": "function"
    },
    {
      "constant": true,
      "inputs": [],
      "name": "totalSupply",
      "outputs": [
        {
          "internalType": "uint256",
          "name": "",
          "type": "uint256"
        }
      ],
      "payable": false,
      "stateMutability": "view",
      "type": "function"
    },
    {
      "constant": true,
      "inputs": [
        {
          "internalType": "address",
          "name": "account",
          "type": "address"
        }
      ],
      "name": "balanceOf",
      "outputs": [
        {
          "internalType": "uint256",
          "name": "",
          "type": "uint256"
        }
      ],
      "payable": false,
      "stateMutability": "view",
      "type": "function"
    },
    {
      "constant": false,
      "inputs": [
        {
          "internalType": "address",
          "name": "account",
          "type": "address"
        },
        {
          "internalType": "uint256",
          "name": "amount",
          "type": "uint256"
        }
      ],
      "name": "mint",
      "outputs": [],
      "payable": false,
      "stateMutability": "nonpayable",
      "type": "function"
    },
    {
      "constant": false,
      "inputs": [
        {
          "internalType": "address",
          "name": "recipient",
          "type": "address"
        },
        {
          "internalType": "uint256",
          "name": "amount",
          "type": "uint256"
        }
      ],
      "name": "transfer",
      "outputs": [
        {
          "internalType": "bool",
          "name": "",
          "type": "bool"
        }
      ],
      "payable": false,
      "stateMutability": "nonpayable",
      "type": "function"
    }
  ],
  "bytecode": "0x60806040523480156200001157600080fd5b5060405162000cb438038062000cb48339818101604052620000379190810190620001e0565b336000806101000a81548173ffffffffffffffffffffffffffffffffffffffff021916908373ffffffffffffffffffffffffffffffffffffffff16021790555081600390805190602001906200008f929190620000d5565b508060049080519060200190620000a8929190620000d5565b506012600560006101000a81548160ff021916908360ff16021790555060646006819055505050620002e4565b828054600181600116156101000203166002900490600052602060002090601f016020900481019282601f106200011857805160ff191683800117855562000149565b8280016001018555821562000149579182015b82811115620001485782518255916020019190600101906200012b565b5b5090506200015891906200015c565b5090565b6200018191905b808211156200017d57600081600090555060010162000163565b5090565b90565b600082601f8301126200019657600080fd5b8151620001ad620001a78262000281565b62000253565b91508082526020830160208301858383011115620001ca57600080fd5b620001d7838284620002ae565b50505092915050565b60008060408385031215620001f457600080fd5b600083015167ffffffffffffffff8111156200020f57600080fd5b6200021d8582860162000184565b925050602083015167ffffffffffffffff8111156200023b57600080fd5b620002498582860162000184565b9150509250929050565b6000604051905081810181811067ffffffffffffffff821117156200027757600080fd5b8060405250919050565b600067ffffffffffffffff8211156200029957600080fd5b601f19601f8301169050602081019050919050565b60005b83811015620002ce578082015181840152602081019050620002b1565b83811115620002de576000848401525b50505050565b6109c080620002f46000396000f3fe608060405234801561001057600080fd5b50600436106100885760003560e01c806370a082311161005b57806370a08231146101035780638da5cb5b1461013357806395d89b4114610151578063a9059cbb1461016f57610088565b806306fdde031461008d57806318160ddd146100ab578063313ce567146100c957806340c10f19146100e7575b600080fd5b61009561019f565b6040516100a29190610822565b60405180910390f35b6100b3610241565b6040516100c09190610864565b60405180910390f35b6100d161024b565b6040516100de919061087f565b60405180910390f35b61010160048036036100fc91908101906106fb565b610262565b005b61011d600480360361011891908101906106d2565b61031c565b60405161012a9190610864565b60405180910390f35b61013b610365565b60405161014891906107ec565b60405180910390f35b61015961038a565b6040516101669190610822565b60405180910390f35b610189600480360361018491908101906106fb565b61042c565b6040516101969190610807565b60405180910390f35b606060038054600181600116156101000203166002900480601f0160208091040260200160405190810160405280929190818152602001828054600181600116156101000203166002900480156102375780601f1061020c57610100808354040283529160200191610237565b820191906000526020600020905b81548152906001019060200180831161021a57829003601f168201915b5050505050905090565b6000600254905090565b6000600560009054906101000a900460ff16905090565b6000809054906101000a900473ffffffffffffffffffffffffffffffffffffffff1673ffffffffffffffffffffffffffffffffffffffff163373ffffffffffffffffffffffffffffffffffffffff16146102bb57600080fd5b80600160008473ffffffffffffffffffffffffffffffffffffffff1673ffffffffffffffffffffffffffffffffffffffff16815260200190815260200160002060008282540192505081905550806002600082825401925050819055505050565b6000600160008373ffffffffffffffffffffffffffffffffffffffff1673ffffffffffffffffffffffffffffffffffffffff168152602001908152602001600020549050919050565b6000809054906101000a900473ffffffffffffffffffffffffffffffffffffffff1681565b606060048054600181600116156101000203166002900480601f0160208091040260200160405190810160405280929190818152602001828054600181600116156101000203166002900480156104225780601f106103f757610100808354040283529160200191610422565b820191906000526020600020905b81548152906001019060200180831161040557829003601f168201915b5050505050905090565b600081600160003373ffffffffffffffffffffffffffffffffffffffff1673ffffffffffffffffffffffffffffffffffffffff1681526020019081526020016000205410156104b0576040517f08c379a00000000000000000000000000000000000000000000000000000000081526004016104a790610844565b60405180910390fd5b600073ffffffffffffffffffffffffffffffffffffffff168373ffffffffffffffffffffffffffffffffffffffff1614156104ea57600080fd5b6000600160003373ffffffffffffffffffffffffffffffffffffffff1673ffffffffffffffffffffffffffffffffffffffff1681526020019081526020016000205490506000600160008673ffffffffffffffffffffffffffffffffffffffff1673ffffffffffffffffffffffffffffffffffffffff16815260200190815260200160002054905083600160003373ffffffffffffffffffffffffffffffffffffffff1673ffffffffffffffffffffffffffffffffffffffff1681526020019081526020016000206000828254039250508190555083600160008773ffffffffffffffffffffffffffffffffffffffff1673ffffffffffffffffffffffffffffffffffffffff16815260200190815260200160002060008282540192505081905550600160003373ffffffffffffffffffffffffffffffffffffffff1673ffffffffffffffffffffffffffffffffffffffff168152602001908152602001600020548483031461065657fe5b600160008673ffffffffffffffffffffffffffffffffffffffff1673ffffffffffffffffffffffffffffffffffffffff16815260200190815260200160002054848201146106a057fe5b505092915050565b6000813590506106b78161094f565b92915050565b6000813590506106cc81610966565b92915050565b6000602082840312156106e457600080fd5b60006106f2848285016106a8565b91505092915050565b6000806040838503121561070e57600080fd5b600061071c858286016106a8565b925050602061072d858286016106bd565b9150509250929050565b610740816108b6565b82525050565b61074f816108c8565b82525050565b60006107608261089a565b61076a81856108a5565b935061077a81856020860161090b565b6107838161093e565b840191505092915050565b600061079b6016836108a5565b91507f596f75722062616c616e636520697320746f206c6f77000000000000000000006000830152602082019050919050565b6107d7816108f4565b82525050565b6107e6816108fe565b82525050565b60006020820190506108016000830184610737565b92915050565b600060208201905061081c6000830184610746565b92915050565b6000602082019050818103600083015261083c8184610755565b905092915050565b6000602082019050818103600083015261085d8161078e565b9050919050565b600060208201905061087960008301846107ce565b92915050565b600060208201905061089460008301846107dd565b92915050565b600081519050919050565b600082825260208201905092915050565b60006108c1826108d4565b9050919050565b60008115159050919050565b600073ffffffffffffffffffffffffffffffffffffffff82169050919050565b6000819050919050565b600060ff82169050919050565b60005b8381101561092957808201518184015260208101905061090e565b83811115610938576000848401525b50505050565b6000601f19601f8301169050919050565b610958816108b6565b811461096357600080fd5b50565b61096f816108f4565b811461097a57600080fd5b5056fea365627a7a723158200504a4287d8e5e40fc10a1922626119efa4e6ff0404fbc1a8fefe5a8def51acb6c6578706572696d656e74616cf564736f6c634300050c0040",
  "source": "import \"./Ownable.sol\";\r\npragma solidity 0.5.12;\r\npragma experimental ABIEncoderV2;\r\n\r\n\r\n\r\ncontract ERC20 is Ownable  {\r\n\r\n    mapping (address => uint256) private _balances;\r\n\r\n    uint256 private _totalSupply;\r\n    string private _name;\r\n    string private _symbol;\r\n    uint8 private _decimals;\r\n    uint256 private _cap;\r\n\r\n    constructor (string memory name, string memory symbol) public {\r\n        _name = name;\r\n        _symbol = symbol;\r\n        _decimals = 18;\r\n        _cap = 100;\r\n        //cap werkt nog niet\r\n    }\r\n\r\n    function name() public view returns (string memory) {\r\n       return _name;\r\n\r\n    }\r\n\r\n\r\n    function symbol() public view returns (string memory) {\r\n       return _symbol;\r\n    }\r\n\r\n\r\n\r\n    function decimals() public view returns (uint8) {\r\n        return _decimals;\r\n\r\n    }\r\n\r\n\r\n    function totalSupply() public view returns (uint256) {\r\n\r\n        return _totalSupply;\r\n    }\r\n\r\n\r\n    function balanceOf(address account) public view returns (uint256) {\r\n\r\n        return _balances[account];\r\n\r\n    }\r\n\r\n\r\n       function mint(address account, uint256 amount) public onlyOwner {\r\n\r\n\r\n        //  require(amount > 0 , \"Amount to transfer must be greater than 0\");\r\n        //  require(_totalSupply <=_cap, \"Cannot mint coins, supply cap reached. Try to mint less coins\");\r\n\r\n         _balances[account] += amount;\r\n         _totalSupply += amount;\r\n\r\n        //   assert((_totalSupply + amount ) <= _cap);\r\n        //    assert(\r\n        //     keccak256(\r\n        //         abi.encodePacked(\r\n        //             msg.sender\r\n\r\n        //         )\r\n        //     )\r\n        //     ==\r\n        //     keccak256(\r\n        //         abi.encodePacked(\r\n        //             owner\r\n        //         )\r\n        //     )\r\n        // ); \r\n\r\n\r\n    }\r\n\r\n\r\n    function transfer(address recipient, uint256 amount) public returns (bool) {\r\n\r\n\r\n              // require (_balances[owner] >= 0);\r\n              // require (msg.value > 0);\r\n\r\n        require (_balances[msg.sender] >= amount, \"Your balance is to low\");\r\n        require(recipient != address(0));\r\n        uint balanceSenderBeforeTransfer = _balances[msg.sender];\r\n        uint balanceRecipientBeforeTransfer = _balances[recipient];\r\n\r\n            // address payable recipient = address (uint160(recipient));\r\n            // recipient.transfer(amount);\r\n\r\n        _balances[msg.sender] -= amount;\r\n        _balances[recipient] += amount;\r\n\r\n        assert((balanceSenderBeforeTransfer - amount) == _balances[msg.sender] );\r\n        assert((balanceRecipientBeforeTransfer + amount) == _balances[recipient]);\r\n\r\n\r\n    }\r\n}\r\n",
  "sourcePath": "C:/truffleprojects/ERC/contracts/ERC20.sol",
  "compiler": {
    "name": "solc",
    "version": "0.5.12+commit.7709ece9.Emscripten.clang"
  },
  "schemaVersion": "3.2.5",
  "updatedAt": "2020-09-24T14:36:39.150Z",
  "networkType": "ethereum",
  "devdoc": {
    "methods": {}
  },
  "userdoc": {
    "methods": {}
  }
}